{
  "contractName": "Contador",
  "abi": [
    {
      "anonymous": false,
      "inputs": [
        {
          "indexed": false,
          "internalType": "string",
          "name": "msg",
          "type": "string"
        },
        {
          "indexed": false,
          "internalType": "uint8",
          "name": "out",
          "type": "uint8"
        }
      ],
      "name": "Tic",
      "type": "event"
    },
    {
      "inputs": [],
      "name": "valor",
      "outputs": [
        {
          "internalType": "uint8",
          "name": "",
          "type": "uint8"
        }
      ],
      "stateMutability": "view",
      "type": "function",
      "constant": true
    },
    {
      "stateMutability": "payable",
      "type": "receive",
      "payable": true
    },
    {
      "inputs": [],
      "name": "incr",
      "outputs": [],
      "stateMutability": "nonpayable",
      "type": "function"
    },
    {
      "inputs": [],
      "name": "decr",
      "outputs": [],
      "stateMutability": "nonpayable",
      "type": "function"
    },
    {
      "inputs": [],
      "name": "reset",
      "outputs": [],
      "stateMutability": "nonpayable",
      "type": "function"
    }
  ],
  "bytecode": "0x608060405260008060006101000a81548160ff021916908360ff16021790555034801561002b57600080fd5b506103108061003b6000396000f3fe6080604052600436106100435760003560e01c8063119fbbd414610052578063d826f88f14610069578063d9f2ac8a14610080578063ecbac7cf146100975761004d565b3661004d57600080fd5b600080fd5b34801561005e57600080fd5b506100676100c5565b005b34801561007557600080fd5b5061007e610178565b005b34801561008c57600080fd5b50610095610215565b005b3480156100a357600080fd5b506100ac6102c9565b604051808260ff16815260200191505060405180910390f35b60008081819054906101000a900460ff168092919060010191906101000a81548160ff021916908360ff160217905550507f278733a8e0534f74d81486a11876429bb0d35a6968fa576ec403ad7aecfa2e6e60008054906101000a900460ff1660405180806020018360ff1681526020018281038252600b8152602001807f41637475616c697a61646f0000000000000000000000000000000000000000008152506020019250505060405180910390a1565b60008060006101000a81548160ff021916908360ff1602179055507f278733a8e0534f74d81486a11876429bb0d35a6968fa576ec403ad7aecfa2e6e60008054906101000a900460ff1660405180806020018360ff1681526020018281038252600b8152602001807f41637475616c697a61646f0000000000000000000000000000000000000000008152506020019250505060405180910390a1565b60008081819054906101000a900460ff16809291906001900391906101000a81548160ff021916908360ff160217905550507f278733a8e0534f74d81486a11876429bb0d35a6968fa576ec403ad7aecfa2e6e60008054906101000a900460ff1660405180806020018360ff1681526020018281038252600b8152602001807f41637475616c697a61646f0000000000000000000000000000000000000000008152506020019250505060405180910390a1565b60008054906101000a900460ff168156fea2646970667358221220e955419af8c5b68fd91d29b37c227821b7194b347d97bcad2e2afac106b8976564736f6c63430007040033",
  "immutableReferences": {},
  "source": "// SPDX-License-Identifier: UNLICENSED\npragma solidity ^0.7.0;\n\ncontract Contador {\n    \n    uint8 public valor = 0;\n    \n    event Tic(string msg, uint8 out);\n        \n    function incr() public {\n        valor++;\n        emit Tic(\"Actualizado\", valor);\n    }\n\n    function decr() public {\n        valor--;\n        emit Tic(\"Actualizado\", valor);\n    }\n\n    function reset() public {\n        valor = 0;\n        emit Tic(\"Actualizado\", valor);\n    }\n    \n    receive() external payable { \n        revert(); \n    }\n}\n",
  "sourcePath": "C:/Users/Ferna/OneDrive/Documentos/Máster/1ºcuatrimestre/BCDA/Prácticas/Práctica 2. Contador con decremento y reset/contracts/Contador.sol",
  "compiler": {
    "name": "solc",
    "version": "0.7.4+commit.3f05b770.Emscripten.clang"
  },
  "schemaVersion": "3.3.2",
  "updatedAt": "2020-11-25T15:07:35.886Z",
  "networkType": "ethereum",
  "devdoc": {
    "kind": "dev",
    "methods": {},
    "version": 1
  },
  "userdoc": {
    "kind": "user",
    "methods": {},
    "version": 1
  }
}